:020000040000FA
:06000000F4EF12F0120003
:020006001200E6
:06000800ACEF07F012004E
:02000E000200EE
:1000100036260000D5000000220000003426000033
:08002000F700000002000000DF
:08002800520ED36E040ED26EDD
:10003000800E9B6ED3A4FED712000F01386B896A25
:10004000F00E926E3A6B8B6A94683B6B8C6A956883
:100050001200190EAF6E260EAC6E900EAB6E400EF7
:10006000B86E1200190E756E260E726E900E716EBD
:10007000400E706E1200D9CFE6FFE1CFD9FFF294A7
:10008000FD0EDBCF14F0FE0EDBCF15F015C014F023
:10009000156A1450D76EFD0EDB50D66EE552E7CFD1
:1000A000D9FF1200D9CFE6FFE1CFD9FFDC0EE66E13
:1000B0000B0EE66EE0DFE552E552930ED56EE5528B
:1000C000E7CFD9FF12000001CA0EC46F0001E66B32
:1000D000030EE76EE619E8AE02D0E73402D0E7502F
:1000E000E65D2DE2E76B030EE76EE719E8AE02D09E
:1000F000E73402D0E750E75D20E2E6C014F0156A6D
:1001000014BE1568030E1502F3CF15F01402F3CFD9
:1001100014F0F4501526C50E1426000E1522E7C063
:1001200016F0176A16BE176814501624E96E15509B
:100130001720EA6EEF6AE72BD6D7E62BC9D7000166
:10014000580ECE6FCF6BD06BD16B0001EB6BEC6BAD
:10015000EC3504E2EB510208000EEC550BE3D20E35
:10016000EB25E96E000EEC21EA6EEF6AEB2B000E38
:10017000EC23EED70001D46B0001E66BE76B1200B5
:10018000D9CFE6FFE1CFD9FFE652DF6AFD0EDBCF24
:10019000E9FFFE0EDBCFEAFFEF500EE0FD0EDBCFF6
:1001A000E9FFFE0EDBCFEAFFEF50DF26FD0EDB2A74
:1001B000FE0E01E3DB2AEAD7DF5000D0E552E5521C
:1001C000E7CFD9FF1200F5C0E6FFF6C0E6FFCEC0CC
:1001D00014F0156A14BE156814C0E6FF15C0E6FFDA
:1001E000CA0EE66EE66A010EE66EE66A0A0E166E44
:1001F000200E176E186A16C0E6FF17C0E6FF18C07B
:10020000E6FF920EE66E000EE66E86EC10F0196EBA
:100210000D0EE15E1950920EE66E000EE66EB0DF36
:10022000E552E552146E156A14BE156814C0E6FF57
:1002300015C0E6FF920EE66E000EE66E030E166E19
:10024000200E176E186A16C0E6FF17C0E6FF18C02A
:10025000E6FF920EE66E000EE66E86EC10F0196E6A
:10026000090EE15E19501200D9CFE6FFE1CFD9FFA8
:10027000E652010EDF6EFB0E146E1F0E156E166A2F
:1002800014C0E6FF15C0E6FF16C0E6FF7EEC11F0D5
:10029000E552E552E552DD0E146E1F0E156E166A1C
:1002A00014C0E6FF15C0E6FF16C0E6FF7EEC11F0B5
:1002B000E552E552E5520001D4511AE1D251E66E01
:1002C000E66AD351E66EE66AC451E66EE66AAA0EA5
:1002D000146E1F0E156E166A14C0E6FF15C0E6FFF9
:1002E00016C0E6FF7EEC11F0176E090EE15E1750A6
:1002F0000001D4051AE1D251E66EE66AD351E66EEA
:10030000E66AC451E66EE66A750E146E1F0E156E2F
:10031000166A14C0E6FF15C0E6FF16C0E6FF7EECC5
:1003200011F0176E090EE15E1750020E0001D45D48
:100330001AE1D251E66EE66AD351E66EE66AC4511E
:10034000E66EE66A440E146E1F0E156E166A14C031
:10035000E6FF15C0E6FF16C0E6FF7EEC11F0176E53
:10036000090EE15E1750030E0001D45D1AE1D2516F
:10037000E66EE66AD351E66EE66AC451E66EE66A58
:10038000120E146E1F0E156E166A14C0E6FF15C00D
:10039000E6FF16C0E6FF7EEC11F0176E090EE15E77
:1003A0001750040E0001D45D1AE1D251E66EE66AE0
:1003B000D351E66EE66AC451E66EE66ADF0E146E4D
:1003C0001E0E156E166A14C0E6FF15C0E6FF16C0B5
:1003D000E6FF7EEC11F0176E090EE15E175000018A
:1003E000CF51E66EE66ACEC014F0156A14BE1568E9
:1003F00014C0E6FF15C0E6FFC40E166E1E0E176E83
:10040000186A16C0E6FF17C0E6FF18C0E6FF7EECCC
:1004100011F0196E070EE15E19500001EA5111E169
:10042000BE0E146E1E0E156E166A14C0E6FF15C0C1
:10043000E6FF16C0E6FF7EEC11F0E552E552E5520C
:1004400012D0EA0510E1B80E146E1E0E156E166A73
:1004500014C0E6FF15C0E6FF16C0E6FF7EEC11F003
:10046000E552E552E5520001F151E66EE66A0001FF
:10047000D151E66EE66A9C0E146E1E0E156E166A5B
:1004800014C0E6FF15C0E6FF16C0E6FF7EEC11F0D3
:10049000176E070EE15E1750E7C014F0156A14BE20
:1004A000156814C0E6FF15C0E6FFE6C016F0176A2F
:1004B00016BE176816C0E6FF17C0E6FF8C0E186E52
:1004C0001E0E196E1A6A18C0E6FF19C0E6FF1AC0A0
:1004D000E6FF7EEC11F01B6E070EE15E1B507F0EF7
:1004E000146E1E0E156E166A14C0E6FF15C0E6FFE8
:1004F00016C0E6FF7EEC11F0E552E552E5526B0EB8
:10050000146E1E0E156E166A14C0E6FF15C0E6FFC7
:1005100016C0E6FF7EEC11F0E552E552E552C7C089
:1005200014F0156A14BE156814C0E6FF15C0E6FF86
:10053000C6C016F0176A16BE176816C0E6FF17C0C9
:10054000E6FFC5C018F0196A18BE196818C0E6FFA2
:1005500019C0E6FF4C0E1A6E1E0E1B6E1C6A1AC0E6
:10056000E6FF1BC0E6FF1CC0E6FF7EEC11F01D6E2F
:10057000090EE15E1D502F0E146E1E0E156E166ACA
:1005800014C0E6FF15C0E6FF16C0E6FF7EEC11F0D2
:10059000E552E552E552CAC014F0156A14BE15685A
:1005A00014C0E6FF15C0E6FFC9C016F0176A16BEF4
:1005B000176816C0E6FF17C0E6FFC8C018F0196A32
:1005C00018BE196818C0E6FF19C0E6FF100E1A6EB3
:1005D0001E0E1B6E1C6A1AC0E6FF1BC0E6FF1CC085
:1005E000E6FF7EEC11F01D6E090EE15E1D50F30E6C
:1005F000146E1D0E156E166A14C0E6FF15C0E6FFD8
:1006000016C0E6FF7EEC11F0E552E552E552CDC092
:1006100014F0156A14BE156814C0E6FF15C0E6FF95
:10062000CCC016F0176A16BE176816C0E6FF17C0D2
:10063000E6FFCBC018F0196A18BE196818C0E6FFAB
:1006400019C0E6FFD40E1A6E1D0E1B6E1C6A1AC06E
:10065000E6FF1BC0E6FF1CC0E6FF7EEC11F01D6E3E
:10066000090EE15E1D500001D3510001F56FF66BDC
:10067000640E0001D303F3500001F56FF66B000127
:10068000D251146E156A14500001F5271550F62347
:100690000001D05130E0580ECE5D2DE1DF502BE04F
:1006A000C50E146E1D0E156E166A14C0E6FF15C039
:1006B000E6FF16C0E6FF7EEC11F0E552E552E5528A
:1006C0008D0E146E1D0E156E166A14C0E6FF15C051
:1006D000E6FF16C0E6FF7EEC11F0E552E552E5526A
:1006E00072DD920EE66E000EE66E71EC12F0E552CF
:1006F000E552DF6A31D0D0512FE04F0ECE5D2CE1B4
:10070000DF502AE07E0E146E1D0E156E166A14C0A0
:10071000E6FF15C0E6FF16C0E6FF7EEC11F0E552DD
:10072000E552E5528D0E146E1D0E156E166A14C03C
:10073000E6FF15C0E6FF16C0E6FF7EEC11F0E552BD
:10074000E552E55240DD920EE66E000EE66E71EC6B
:1007500012F0E552E552DF6A090E0001CF5D36E185
:10076000D05134E1DF5032E0700E146E1D0E156E64
:10077000166A14C0E6FF15C0E6FF16C0E6FF7EEC61
:1007800011F0E552E552E5528D0E146E1D0E156EF8
:10079000166A14C0E6FF15C0E6FF16C0E6FF7EEC41
:1007A00011F0E552E552E55200014E0ECE6F030EF8
:1007B000D46F09DD0001030EEA6F920EE66E000EA3
:1007C000E66E71EC12F0E552E552DF6AE552E55251
:1007D000E7CFD9FF1200CEC014F0156A14BE156819
:1007E00014C0E6FF15C0E6FFE7C016F0176A16BE94
:1007F000176816C0E6FF17C0E6FFE6C018F0196AD2
:1008000018BE196818C0E6FF19C0E6FFCA0EE66EEA
:10081000E66A010EE66EE66A580E1A6E1D0E1B6E33
:100820001C6A1AC0E6FF1BC0E6FF1CC0E6FF920E62
:10083000E66E000EE66E86EC10F01D6E0F0EE15EA9
:100840001D50920EE66E000EE66E9ADCE552E55201
:10085000146E156A14BE156814C0E6FF15C0E6FFD5
:10086000920EE66E000EE66E500E166E1D0E176EA0
:10087000186A16C0E6FF17C0E6FF18C0E6FF920E22
:10088000E66E000EE66E86EC10F0196E090EE15E63
:10089000195012000001C551C615C71558084BE084
:1008A000C851C915CA15580846E0CB51CC15CD150D
:1008B000580841E0C551C815CB1558083CE0C65151
:1008C000C915CC15580837E0C751CA15CD155808B9
:1008D00032E0C551C915CD1558082DE0C751C915CD
:1008E000CB15580828E0C551C615C7154F0823E099
:1008F000C851C915CA154F081EE0CB51CC15CD15EE
:100900004F0819E0C551C815CB154F0814E0C65162
:10091000C915CC154F080FE0C751CA15CD154F08A2
:100920000AE0C551C915CD154F0805E0C751C915D5
:10093000CB154F0807E1010ED06F020ED46F0001F6
:10094000F36B05D0D05102E0000E01D0010E120071
:100950000001C5510BE0580EC55D03E194928B92E6
:1009600005D04F0EC55D02E194928B82C8510BE019
:10097000580EC85D03E194948B9405D04F0EC85D6A
:1009800002E194948B84CB510BE0580ECB5D03E1D4
:1009900094968B9605D04F0ECB5D02E194968B8694
:1009A000C6510BE0580EC65D03E195908C9005D0C2
:1009B0004F0EC65D02E195908C80C9510BE0580E38
:1009C000C95D03E195928C9205D04F0EC95D02E19D
:1009D00095928C82CC510BE0580ECC5D03E195943E
:1009E0008C9405D04F0ECC5D02E195948C84C75158
:1009F0000BE0580EC75D03E195968C9605D04F0E1F
:100A0000C75D02E195968C86CA510BE0580ECA5D0F
:100A100003E194988B9805D04F0ECA5D02E194983B
:100A20008B88CD510BE0580ECD5D03E1949A8B9AE3
:100A300005D04F0ECD5D02E1949A8B8A1200000121
:100A4000E66B030EE76EE619E8AE02D0E73402D09B
:100A5000E750E65D01E3AFD0F20501E0ACD0E76B13
:100A6000030EE76EE719E8AE02D0E73402D0E75094
:100A7000E75D01E39ED0F20501E09BD0E6C014F0F3
:100A8000156A14BE1568030E1502F3CF15F0140293
:100A9000F3CF14F0F4501526C50E1426000E1522BF
:100AA000E7C016F0176A16BE176814501624E96ED0
:100AB00015501720EA6EEF50580801E177D0E6C0D4
:100AC00018F0196A18BE1968030E1902F3CF19F04D
:100AD0001802F3CF18F0F4501926C50E1826000E90
:100AE0001922E7C01AF01B6A1ABE1B6818501A2494
:100AF000E96E19501B20EA6EEF504F0857E00001D5
:100B0000D05154E1580ECE5D25E1E6C014F0156ACF
:100B100014BE1568030E1502F3CF15F01402F3CFBF
:100B200014F0F4501526C50E1426000E1522E7C049
:100B300016F0176A16BE176814501624E96E155081
:100B40001720EA6E580EEF6E46DE00014F0ECE6F94
:100B5000FFDE27D04F0ECE5D24E1E6C014F0156A0B
:100B600014BE1568030E1502F3CF15F01402F3CF6F
:100B700014F0F4501526C50E1426000E1522E7C0F9
:100B800016F0176A16BE176814501624E96E155031
:100B90001720EA6E4F0EEF6E1EDE0001580ECE6F6C
:100BA000D7DE78DE0001CF2B0001F26B0001E72BCE
:100BB00057D7E62B46D7920EE66E000EE66E71EC26
:100BC00012F0E552E5520001E607E707010EF26F69
:100BD0001E0EF16F010EF36F12000001040ED46FB0
:100BE00063EC00F09468956800011E0EF16F010E31
:100BF000F36F1200A49AA38AD09EC00EF2121200C4
:100C0000D9CFE6FFE1CFD9FFE652DF6A5E0EDF5CA7
:100C10001EE0A4AA1BD07450DF6E240EDF5C09E135
:100C2000D950FD0FE96EDACFEAFF740EEE6E000EBA
:100C3000ED6EFD0EDBCFE9FFFE0EDBCFEAFFDFCF6F
:100C4000EFFFFD0EDB2AFE0E01E3DB2ADFD7FD0EF0
:100C5000DBCFE9FFFE0EDBCFEAFFEF6A0001010EFA
:100C6000E36FE552E552E7CFD9FF1200D9CFE6FF97
:100C7000E1CFD9FF040EE126DF6A010EDB6AFD0E2B
:100C8000DBCFE6FFFE0EDBCFE6FFFCEC10F0E5521B
:100C9000E552020EF3CFDBFF030EDB6A030EDB50DF
:100CA0005FE1020EDB50E76EFD0EDBCFE9FFFE0ECB
:100CB000DBCFEAFFE750E926000EEA22EF505E089C
:100CC0000EE1020EDB50E76EFD0EDBCFE9FFFE0EFC
:100CD000DBCFEAFFE750E926000EEA22EF6A020EB8
:100CE000DB50E76EFD0EDBCFE9FFFE0EDBCFEAFF48
:100CF000E750E926000EEA22EF502C082EE1020E02
:100D0000DB50E76EFD0EDBCFE9FFFE0EDBCFEAFF27
:100D1000E750E926000EEA22EF6A020EDB50E76E8A
:100D2000FD0EDBCF14F0FE0EDBCF15F0E7501426DE
:100D3000000E1522010E1426000E152214C0E6FF27
:100D400015C0E6FF11EC10F0E552E552010EF3CFAD
:100D5000DBFFF36E030EF3CFDBFF020EDB069ED745
:100D6000FD0EDBCFE6FFFE0EDBCFE6FFC0EC00F0B2
:100D7000E552E552DF6E010EDB50DF5C03E1010E50
:100D800003D002D0000E00D0146E040EE15C02E22B
:100D9000E16AE552E16E1450E552E7CFD9FF120047
:100DA000D9CFE6FFE1CFD9FFE652DF6AFD0EDBCFF8
:100DB000E9FFFE0EDBCFEAFFEF5039E0FD0EDBCF9F
:100DC000E9FFFE0EDBCFEAFFEF50240809E0FD0E3D
:100DD000DBCFE9FFFE0EDBCFEAFFEF502C0821E16D
:100DE000FD0EDBCFE9FFFE0EDBCFEAFFEF6A010E5F
:100DF000E76EFD0EDBCF14F0FE0EDBCF15F0E750F3
:100E00001426000E1522EA6ADF34FE0BEA36E96E7C
:100E1000600EE926000EEA2214C0EEFF15C0EDFFB9
:100E2000DF2AFD0EDB2AFE0E01E3DB2ABFD7E552E7
:100E3000E552E7CFD9FF120062C0E6FF63C0E6FFCC
:100E400011EC10F0E552E552F3CF14F0F4CF15F0A9
:100E5000CA0E141801E1155001E07DD064C0E6FF10
:100E600065C0E6FF11EC10F0E552E552F3CF14F047
:100E7000F4CF15F0010E141801E115506CE1D50EF8
:100E8000E66E000EE66E60C0E6FF61C0E6FFDCECD9
:100E900010F0E552E552E552E5522C084BE16AC0EC
:100EA000E9FF6BC0EAFFEF50E66E66C0E6FF67C081
:100EB000E6FF11EC10F0E552E552F3CF14F0F4CF59
:100EC00015F0030E1502F3CF15F01402F3CF14F052
:100ED000F4501526C50E1426000E152214C0E6FF88
:100EE00015C0E6FF68C0E6FF69C0E6FF11EC10F030
:100EF000E552E552E552E7CF15F0E552E7CF14F0A1
:100F00001450F324E96E1550F420EA6EE552E750D0
:100F1000EF6E0001CF2BBEDC6AC0E9FF6BC0EAFFB9
:100F2000EF50580804E100014F0ECE6F03D00001CE
:100F3000580ECE6FDC0EE66E000EE66E60C0E6FF69
:100F400061C0E6FFDCEC10F0E552E552E552E552F7
:100F50002C0801E142DE1200DACFE4FFE2CFDAFF33
:100F6000E9CFE4FFEACFE4FFF6CFE4FFF7CFE4FFF9
:100F7000F5CFE4FFF3CFE4FFF4CFE4FFFACFE4FFD3
:100F800000EE00F0140EE80403E3EECFE4FFFBD71D
:100F900000EE14F00A0EE80403E3EECFE4FFFBD703
:100FA000E652A4AA07D0740EE66E000EE66E28DEA6
:100FB000E552E552C00EF212E55200EE1DF00A0EA7
:100FC000E80403E3E5CFEDFFFBD700EE13F0140ECA
:100FD000E80403E3E5CFEDFFFBD7E5CFFAFFE5CF6C
:100FE000F4FFE5CFF3FFE5CFF5FFE5CFF7FFE5CF62
:100FF000F6FFE5CFEAFFE5CFE9FFE5CFDAFF110025
:1010000014EC00F01DEC00F029EC00F032EC00F0E4
:10101000DC0EE66E0B0EE66E52EC00F0E552E55289
:10102000FAEF05F0EDDF63EC00F03E0E146E1D0EDE
:10103000156E166A14C0E6FF15C0E6FF16C0E6FF7F
:101040007EEC11F0E552E552E552F2A44ED0DC0EF2
:10105000E66E0B0EE66E3BEC00F0E552E552000149
:10106000D05141E1090ECF5D3EE0010ED46FEFC0DB
:10107000E9FFEA6AE9BEEA68D20EE926000EEA2232
:10108000EF2AEFC0E9FFEA6AE9BEEA68D20EE92674
:10109000000EEA22EFCF14F03C0E145C14E3F0C013
:1010A000E9FFEA6AE9BEEA68D20EE926000EEA2202
:1010B000EF2AEFC0E9FFEA6AE9BEEA68D20EE92644
:1010C000000EEA22EF6A0001F107F15103E11E0E62
:1010D000F16FB5DC0001F30506E1F42B060EF45DBB
:1010E00002E1F46BF36B34EC01F00001E35114E026
:1010F000E36B6C0E146E0C0E156E145015100CE094
:10110000740EE66E000EE66E4BDEE552E55294DE9E
:0C1110001FDC00011E0EF16F98D71200CA
:04111C00CAEC0DF01C
:10112000FB0EDBCFF3FFDB06F35000090AE018ECFF
:101130000EF0FA0E83EC0EF0F3E1151CF1E1010E56
:1011400001D0000EF9EF0DF0CAEC0DF03B0EE124DA
:1011500002E3E168E652E16E010EDB6A020EDB6A31
:10116000F90EDBCFF6FFFA0EDBCFF7FFFB0EDBCF7E
:10117000F8FF0800F550DF6EDF5002E11DEF0DF0C3
:10118000250EDF5C02E010EF0DF0030EDB6A040EAB
:10119000DB6A050EDB6A060EDB6A070EDB6A32ECE1
:1011A0000DF02D0EDF5C0CE02B0EDF5C09E0200E55
:1011B000DF5C06E0230EDF5C03E0300EDF5C1AE14B
:1011C000DF50300A14E0130A0FE0030A0AE00B0AAA
:1011D00005E0060AE4E1030EDB80E1D7030EDB82C3
:1011E000DED7030EDB84DBD7030EDB86D8D7030EF6
:1011F000DB88D5D72A0EDF5C1BE12EEC0DF07CECF2
:101200000DF010E0030EDB8008680968130EDBCFD9
:101210000DF0140EDBCF0EF044EC12F0040E06C0FD
:10122000DBFF03D0130E65EC0DF032EC0DF00BD0AC
:10123000090EDB6AD3EC0DF003E047EC0EF0FAD7B1
:10124000090E65EC0DF0030EDBB0DB982E0EDF5CB3
:101250001BE132EC0DF02A0EDF5C0BE12EEC0DF001
:101260007CEC0DF003E1130EB7EC0DF032EC0DF059
:101270000BD0090EDB6AD3EC0DF003E047EC0EF067
:10128000FAD7090EB7EC0DF0680EDF5C07E132EC1F
:101290000DF0680EDF5C1DE1030E18D0740EDF5CEC
:1012A00017E07A0EDF5C14E0480EDF5C06E0540EB7
:1012B000DF5C03E05A0EDF5C02E1020E07D06C0E29
:1012C000DF5C03E06A0EDF5C04E1010E0AEC0EF065
:1012D000C9DBDF506E0A01E17FD31E0A01E192D122
:1012E000200A01E18FD13F0A01E149D11A0A01E147
:1012F00046D10D0A01E143D1200A01E140D13A0A69
:1013000001E13DD1200A01E13AD1260A01E135D1BE
:101310000D0A01E132D11A0A01E1D9D0200A4AE0CE
:10132000300A1FE0460A0EE0250A01E083D3D950B7
:10133000F90FE96EFF0EDA20EA6E010EEE5E000E86
:10134000EE5AEE5A18EC0EF0250EE66E95DB03E130
:10135000151C01E169D314EC0EF001E26BD3DB2A1A
:1013600069D3080EDB6A040EDB50010806E2040EA6
:10137000DB04DCEC0DF0DB508BDB080EDB5009E00E
:10138000030EDB50010B05E172DB01E04DD3080ECB
:10139000DB6A64DBEFCFDFFF8CEC0EF003E1151CA2
:1013A00001E142D314EC0EF001E3DB2A60DB01E142
:1013B00041D33AD3070EDB5002080FE158EC0EF090
:1013C000030E1FEC0EF00E0EEECFDBFF0F0EEECF76
:1013D000DBFF100EEECFDBFF20D0F70EDBCF17F0D8
:1013E000F80EDBCF18F0020E175E000E185AF70E3B
:1013F00017C0DBFFF80E18C0DBFF17C0E9FF18C0ED
:10140000EAFF0FEC0EF0166A0E0E14C0DBFF0F0E93
:1014100015C0DBFF100E16C0DBFF0E0EDBCFE6FFA4
:101420000F0EDBCFE6FF100EDBCFE6FF0AEC11F06C
:10143000E552E552E552130E07C0DBFF140E08C05B
:10144000DBFF060EDB5005E0130E53EC0EF001E25D
:101450006ADB77EC0EF002E2130E37DB3AEC0EF0AB
:1014600006E0040E53EC0EF002E2050E2EDB030E36
:10147000DBB005D0FCDA01E0D7D2080EDB6A090E3A
:10148000DB6A0E0EDBCFF6FF0F0EDBCFF7FF100E81
:10149000DBCFF8FF0800F550DF6EDF5014E07DEC85
:1014A0000EF011E28CEC0EF003E1151C01E1BCD250
:1014B000BBDB01E3DB2A090EDB2AD9500E0FE96EF4
:1014C000000ECBDBE7D7D3DA01E1B4D2ADD2C6DA76
:1014D000110EEECFDBFF120EEDCFDBFF110EDBCFD7
:1014E000E6FF120EDBCFE6FFFCEC10F0E552E55212
:1014F000130EF3CFDBFF140EF4CFDBFF060EDB5031
:1015000004E0130ED0DB01E20EDB77EC0EF002E21A
:10151000130EDBDAAFDB05E0040EC5DB02E2050EDD
:10152000D4DA030EDBB005D0A2DA01E07DD2080EDA
:10153000DB6A090EDB6A110EDBCFE9FF120EDBCF8F
:10154000EAFFEFCFDFFFDF5014E0D7DB12E2E4DB8E
:1015500003E1151C01E168D267DB01E3DB2A090E18
:10156000DB2A110EDB2ADBCFE9FF120EE8E3DB2AD0
:10157000E6D77DDA01E15ED257D2030EDB8E070E8D
:10158000DB0410E195DB040E5ADB0A0EEECFDBFF25
:101590000B0EEECFDBFF0C0EEECFDBFF0D0EEECF12
:1015A000DBFF6CD0070EDB5003082CE1030EDBAE33
:1015B0000DD0B2DA020E76DAEFCF14F0156A166AA1
:1015C000176A14AE39D01568166835D0F70EDBCF20
:1015D00015F0F80EDBCF16F0020E155E000E165A4F
:1015E000F70E15C0DBFFF80E16C0DBFF15C0E9FFD4
:1015F00016C0EAFFEFCF14F00A0E14C0DBFF0B0E8B
:10160000DB6A38D0070EDB50020809E1030EDBAEBF
:1016100004D059DB16AE10D00ED055DB0DD0030E22
:10162000DBAE12D079DA020E3DDAF9DA166A176A01
:1016300015AE02D016681768E2DA0C0E16C0DBFF92
:101640000D0E17C0DBFF1AD0F70EDBCF16F0F80E29
:10165000DBCF17F0020E165E000E175AF70E16C0FB
:10166000DBFFF80E17C0DBFF16C0E9FF17C0EAFF6B
:10167000D6DAC5DA0C0EDB6A0D0EDB6A060EDB501D
:1016800005E1010EF36E050EF3CFDBFF150EDB6AED
:10169000160EDB6AD950370F146E000EDA20156E65
:1016A000390E14C0DBFF3A0E15C0DBFF380EDB6AC3
:1016B000080EDB6A0A0EAEDADF50780A12E0200A62
:1016C00010E0280A0CE0200A0AE03F0A06E00D0AB2
:1016D00002E0200A08E1020E05D0080E03D0080E31
:1016E000DF26100E97DA030EDBBE02D0DB92DB940E
:1016F000DB50800B24E08ADAD890030EEB50000A0E
:1017000008E6000EEE5C000EEE58000EEE58000EDD
:10171000EE5815E213DA0B680C680D680E680CECD5
:1017200012F00A0E02C0DBFF0B0E03C0DBFF0C0E33
:1017300004C0DBFF0D0E05C0DBFF2D0E08D0030E2D
:10174000DBA202D02B0E03D0DBA408D0200EF36E58
:10175000170EF3CFDBFF150EDB2A02D0170EDB6A64
:10176000050EDB5003E1B7D901E189D0200E146EDC
:10177000260E156E000E166E070EDBCF17F0186AD8
:10178000196A1A6A17C00BF018C00CF019C00DF0D6
:101790001AC00EF0D3D997EC12F014500224F36E55
:1017A00015500320F46E16500420F86EF4CFF7FFA6
:1017B000F3CFF6FF0800090EF5CFDBFF580EDF5C14
:1017C0000FE1610EF36E090E7BD90AE3200E146E51
:1017D000090EDBCFE7FF1450E75E090EE7CFDBFF12
:1017E000070EDBCF14F0156A166A176A0FDA14C0F9
:1017F0000BF015C00CF016C00DF017C00EF0EECFB8
:1018000006F0EECF07F0EECF08F0EFCF09F097EC3F
:1018100012F009C0EDFF08C0EDFF07C0EDFF06C0E4
:10182000EFFF390EDBCFE9FFDB063A0EDBCFEAFF35
:1018300001E2DB06090EDBCFEFFF150EDB2A4BD9E9
:1018400095E1030EDBA61DD06F0EDF5C06E1C1D96A
:1018500018E3150EDB285BDA14D0780EDF5C09E0A4
:10186000580EDF5C06E0620EDF5C03E0420EDF5CD8
:1018700008E1020EF36E160EF3CFDBFF02D0150E59
:10188000DB6A030EDB50100B0EE0040EDBCF14F00E
:10189000050EDB50D880145406E2060EDB5003E13F
:1018A000040EDB5034DA95D90AE2050EDBCFE7FFF0
:1018B000150EDB50E75E050EE7CFDBFF02D0050E0D
:1018C000DB6A040EDBCF14F0160E45D9D880145411
:1018D00014E2160EDBCFE6FF150EDBCFE6FF040E9B
:1018E000DBCFE6FF050EDB50E552E75CE552D88022
:1018F000E754E552D880E7545FD9030EDB50010B63
:101900000BE1080EDB5008E0B2D801E08DD0080EE4
:10191000DB50BED8080EDB6A170EDB5007E088D913
:10192000170EF1D903E1151C01E17ED0160EDB5034
:1019300016E07ED9300EE66E9FD802E1151C74E0E9
:1019400077D9DFCFE6FFCAEC11F0E552E552E55258
:10195000F4CF15F00001F31C02E1151C65E0050E43
:10196000DBCF14F0160EDB50D880145409E2050EBC
:10197000DBCFE7FF160EDB50E75E050EE7CFDBFFA0
:10198000300EE66E050ECBD94FE1390EDB2ADBCFE8
:10199000E9FF3A0E01E3DB2ADBCFEAFF090EEFCFC6
:1019A000DBFFDB500EE044D9090EADD902E1151C76
:1019B0003BE0390EDB2ADBCFE9FF3A0EEDE3DB2A11
:1019C000EBD755D831E1160EDBCFE6FF080EC3D8B2
:1019D000E552E7245DD82ED0070EDB50030A1CE049
:1019E000010A14E0030A07E07BD9DBCFEEFF020E09
:1019F000DBCFEDFF1FD0F5D8196A17AE02D01868FB
:101A000019682CD8BCD819C0EEFF14D0EAD817BE7C
:101A1000186824D8B4D80ED063D9DBCFEFFF0AD032
:101A20007BD905E1151C03E1F368F46810D0FCD8FC
:101A300001E3DB2A79D9B9EF08F0010EDBCF14F00E
:101A4000020EDBCF15F014C0F3FF15C0F4FF3B0E00
:101A5000E15C02E2E16AE552E16ECBD029D9020EE7
:101A60001FEF0EF061D90800F550DF6E1200200E56
:101A7000E66E080E8FEF0EF0CAEC11F0E552E5525B
:101A8000E552F3CF14F0F4CF15F00001F31C12006F
:101A9000146E156AD950010F4DD91450EE26155009
:101AA000ED221200185E000E195AF70E18C0DBFF67
:101AB000F80E19C0DBFF18C0E9FF19C0EAFF1200D9
:101AC000DBCFF4FFF350F45C1200DB50E76E040E42
:101AD000E7CFDBFF12000A0EDBCF14F00B0EDBCFDB
:101AE00015F00C0EDBCF16F00D0EDBCF17F01450F7
:101AF0001510161017101200130EEECFDBFF140E88
:101B0000EDCFDBFF130EDBCF14F0140EDBCF15F09F
:101B10000001800E15141200F70EDBCF18F0F80E3E
:101B2000DBCF19F01200050EDB50E66ED950130F13
:101B300001D9E552E750EE6EED6A12000A0EDBCFD6
:101B400006F00B0EDBCF07F00C0EDBCF08F00D0E0E
:101B5000DBCF09F01200DBCFE6FF150EDBCFE6FF8F
:101B6000050EDB50E552E724E552E7241200DB5076
:101B7000CED8010EF36E060EF3CFDBFF1200EE504F
:101B8000EFCFEAFFE96E16C0EEFF17C0EEFF18C0F8
:101B9000EEFF1200D9CFE6FFDACFE6FFE1CFD9FFA3
:101BA000E2CFDAFF1200DFCFE6FFE66AD2EC12F0F6
:101BB000E552E552F3501200E76E080EE7CFDBFF67
:101BC0001200EECF14F0EECF15F0EFCF16F0176A3B
:101BD0001200050EDBCF14F0150EDB50D880145424
:101BE0001200010EDBCF16F0020EDBCF17F0186AE1
:101BF0001200E552E5CFDAFFE7CFD9FF12000A0E57
:101C000014C0DBFF0B0E15C0DBFF1200D9500A0F0A
:101C10009AEF0EF0F36E070EF3CFDBFF1200EECF5C
:101C200014F0EFCF15F01200010EDB2A020E1200A5
:101C3000FC0EDBCFE6FFFD0EDBCFE6FF1200145EED
:101C4000000E155AF70E14C0DBFFF80E15C0DBFFAF
:101C500014C0E9FF15C0EAFF1200DA20EA6EEF2A8D
:101C6000EECFF6FF000EEF22EECFF7FFEF22EECF22
:101C7000F8FF1200040EDBCFE6FF130EDB50E55237
:101C8000E75C9ADFDB5004DF060EDB501200090E22
:101C9000DB500A0DF350DF24D00FE76E090EE7CFBB
:101CA000DBFF32EF0DF0DB50F36E050E60EF0DF051
:101CB000F70EDBCF14F0F80EDBCF15F01200DFCFFC
:101CC000E6FF3CEF0DF028DF030EECDEE1EF0DF058
:101CD0008EEC08F0E552E552E552E552000912009B
:101CE000BDDEEE50EFCFEAFFE96E010E1200130EDB
:101CF000DB50F36E040E60EF0DF0040EDB50F36E5C
:101D0000090E60EF0DF0DBCFE6FF3CEF0DF0E76E64
:101D1000050EE7CFDBFF12008BDF5FEF0EF0DBCFAE
:101D2000E6FF86DF68EF0EF0D950F90FE96EFF0E7F
:0E1D30002DEF0EF0E96E000EDA20EA6E1200C2
:021D3E005379D7
:101D40007374656D2052656164792E2E2E0A0D0024
:101D500025732C25695E000024504C59504D542C9D
:101D600025692C25692C25692C25692C2563000003
:101D700049742773206120647261770A0D00506CEA
:101D800061796572205820776F6E0A0D00546F20BC
:101D9000526573746172742067616D6520686F6C41
:101DA000642074686520456E74657220616E6420DD
:101DB0004D6F646520666F722033207365636F6EAC
:101DC00064730A0D00506C61796572204F20776F43
:101DD0006E0A0D000A0909092032202020256320FF
:101DE00020207C2020202563207C202025632020AB
:101DF0000A0D000A09095709202D2D2D2D2D2D2DF5
:101E00002D2D2D2D2D2D2D2D2D2D2D2D2D0A0D0072
:101E10000A09094F093120202025632020207C2039
:101E200020202563207C2020256320200A0D000A25
:101E300009095209202D2D2D2D2D2D2D2D2D2D2D26
:101E40002D2D2D2D2D2D2D2D2D0A0D000A090909C1
:101E5000203020202025632020207C202020256386
:101E6000207C2020256320200A0D000A0909092072
:101E700020202030092020310920320A0A0D0009D3
:101E8000090909636F6C756D6E0A0D00726F773DFD
:101E9000256409636F6C3D25640A0D0053656C650C
:101EA00063743A256409095475726E2054696D652E
:101EB0003A253032640A0D00436F6C0A0D00526FF0
:101EC000770A0D00506C617965723A2563090954EF
:101ED00075726E20436F756E743A25640A0D005456
:101EE0006963546163546F65253033640909476140
:101EF0006D652054696D653A253032643A2530327B
:101F00006409095374617475733A52657365740A90
:101F10000D00546963546163546F6525303364095F
:101F20000947616D652054696D653A253032643A20
:101F30002530326409095374617475733A447261CF
:101F4000770A0D00546963546163546F652530331B
:101F500064090947616D652054696D653A25303221
:101F6000643A2530326409095374617475733A57C1
:101F70006F6E0A0D00546963546163546F652530B8
:101F80003364090947616D652054696D653A2530F0
:101F900032643A2530326409095374617475733AB6
:101FA000506C6179696E670A0D005469635461630E
:101FB000546F6525303364090947616D65205469A4
:101FC0006D653A253032643A25303264090953741C
:101FD000617475733A52656164790A0D0009092DBF
:101FE0002D2D2D2D2D5469632054616320544F45B0
:101FF0002D2D2D2D2D2D2D2D0A0D001B5B324A1B55
:102000005B480025732C25695E002447414D454EF1
:10201000442C25692C25692C25632C253034690036
:0120200000BF
:0E202200FF0EE3CFEAFFE552FF0EE3CFE9FF2A
:10203000E552E66AE66AD9CFE6FFDACFE6FFFC0EA4
:10204000E124D96EFF0EE220DA6EE66AE66AE66AFD
:10205000200EEF5C06E0090EEF5C03E0EF6603D0B4
:102060003FD0EE50F5D72D0EEF5C03E1FF0EE32AD3
:1020700003D02B0EEF5C01E1EE502F0EEF6424D065
:102080003A0EEF6021D0D890F90EE336FA0EE3361F
:10209000FD0EDECFE3FFFE0EDDCFE3FFD890F90E9D
:1020A000E336FA0EE336D890F90EE336FA0EE3364D
:1020B000FD0EE350DE26FE0EE350DD22300EEE5C18
:1020C000DE26000EDD22D9D7FF0EE3CFE8FFE8526F
:1020D00007E0F90EE31EE32AFA0ED8B4E306E31E86
:1020E000E552E552E552FF0EE3CFDAFFE552FF0E6F
:1020F000E3CFD9FFE552E1CFE9FFE2CFEAFFED52AE
:0C210000ED52EECFF3FFEFCFF4FF120022
:04210C00D9CFE6FF42
:10211000DACFE6FFE1CFD9FFE2CFDAFFE652E652AF
:10212000E652E652D950F90F146EFF0EDA20156E02
:10213000020E14C0DBFF030E15C0DBFF020EDBCF67
:10214000E6FF030EDBCFE6FFF90EDBCFE6FFFA0E6C
:10215000DBCFE6FFFB0EDBCFE6FFD950FC0FE66ED0
:10216000FF0EDA20E66EA4EC08F0146E070EE15CB8
:1021700002E2E16AE552E16E1450F3CFDEFFF4CFE4
:10218000DDFFFC0EDBCFE9FFFD0EDBCFEAFFEF6AE0
:10219000DECF14F0DDCF15F014C0F3FF15C0F4FF4F
:1021A000040EE15C02E2E16AE552E16EE552E5CF40
:0821B000DAFFE7CFD9FF1200AE
:0821B800D9CFE6FFDACFE6FF04
:1021C000FA0EE3CFD9FFFB0EE3CFDAFFFC0EE3CF2D
:1021D000E9FFFD0EE3CFEAFFDE50EF5C02E1EE66C1
:1021E000FBD7F36EFF0EE3CFDAFFE552FF0EE3CF2E
:1021F000D9FFE552F3501200FE0EE3CFE9FFFF0EC8
:10220000E3CFEAFFF36AF46AEE5203E0F34AF42AFA
:10221000FBD71200FF0EE3CFF8FFE552FF0EE3CF2E
:10222000F7FFE552FF0EE3CFF6FFE552E66AE66AF6
:10223000E66A0900F55209E0FD0EE32A05E1FE0E0B
:10224000E32A02E1FF0EE32AF4D7FD0EE3CF07F005
:0E225000FE0EE3CF08F0FF0EE3CF09F0120000
:02225E000E0E62
:10226000F66E000EF76E000EF86E01010900F550D3
:10227000056F0900F550066F03E1056701D03DD0F9
:102280000900F550006F0900F550016F0900F55085
:10229000026F09000900F550E96E0900F550EA6E79
:1022A000090009000900F550036F0900F550046F9B
:1022B00009000900F6CF07F1F7CF08F1F8CF09F1CF
:1022C00000C1F6FF01C1F7FF02C1F8FF010103538E
:1022D00002E1045307E00900F550EE6E0307F8E24F
:1022E0000407F9D707C1F6FF08C1F7FF09C1F8FFD6
:0C22F00001010507000E065BBFD71200BD
:0422FC00D9CFE6FF51
:10230000DACFE6FFE1CFD9FFE2CFDAFFE652E652BD
:10231000E652E652D950FB0F146EFF0EDA20156E0E
:1023200014C0DEFFDD6EDECFE6FFDDCFE6FFFB0E85
:10233000DBCFE6FFFC0EDBCFE6FFFD0EDBCFE6FFDB
:10234000F7C0E6FFF8C0E6FFA4EC08F0146E070E35
:10235000E15C02E2E16AE552E16E1450020EF3CF55
:10236000DBFF030EF4CFDBFF020EDBCF14F0030E16
:10237000DBCF15F014C0F3FF15C0F4FF040EE15CD1
:1023800002E2E16AE552E16EE552E5CFDAFFE7CF1E
:04239000D9FF12005F
:0C239400D9CFE6FFDACFE6FFE1CFD9FF9A
:1023A000E2CFDAFFFB0EDBCF14F0FC0EDBCF15F033
:1023B0000001800E15141AE1FB0EDBCFE9FFFC0EC5
:1023C000DBCFEAFFEECFF3FFEDCFF4FFEE2A000EF6
:1023D000EF22F3CFE9FFF4CFEAFFFD0EDBCFEFFFF3
:1023E000EF50156AF36E15C0F4FF10D0FB0EDB50F2
:1023F000FE0806E1FD0EDBCFE6FF02EC13F005D090
:10240000FD0EDBCFE6FF03EC00F0E552E552E5CF31
:08241000DAFFE7CFD9FF12004B
:0824180006500B02F3CF02F0A5
:10242000F4CF03F00C02F3500326000EF420046EE8
:1024300006500D02F3500426000EF420056E0650DF
:102440000E02F350052607500B02F3500326F450FA
:102450000422000E052207500C02F3500426F4500B
:10246000052207500D02F350052608500B02F350C9
:102470000426F450052208500C02F350052609509A
:082480000B02F35005261200C7
:0824880009C013F008C012F0B6
:1024900008500D02F4CF07F0F3CF06F009500E02FA
:1024A000F4CF09F0F3CF08F00D02F3500726F450F3
:1024B0000822E86A092212500E02F3500726F4504F
:1024C0000822E86A09220EAE6AEF12F01250085E86
:1024D0001350095A13AE000C0D50085E0E50095AE5
:0224E000000CEE
:0E24E200D9CFE6FFDACFE6FFE1CFD9FFE2CF98
:1024F000DAFF72A2FED7FC0EDBCFE9FFFD0EDBCFC9
:10250000EAFFEF50E66EBBEC12F0E552FC0EDBCFBB
:10251000E9FFDB2AFD0EDBCFEAFF01E3DB2AEF5008
:0E252000E8E1E552E5CFDAFFE7CFD9FF120080
:02252E00056A3C
:10253000046A036A026A200EE76ED89006360736F0
:102540000836093602360336043605360B50025C6F
:102550000C5003580D5004580E50055809E30B5009
:10256000025E0C50035A0D50045A0E50055A062AAA
:06257000E72EE4D7120083
:0A257600D9CFE6FFDACFE6FFE1CF90
:10258000D9FFE2CFDAFF72AC04D072900001F9B348
:102590007280FD0EDB50736EE552E5CFDAFFE7CFB8
:0425A000D9FF12004D
:0C25A400F36AF46AFF0EE124E96EFF0EFA
:1025B000E220EA6EED6607D02F0EEF6404D03A0EEB
:0825C000EF6001D0F32A1200C4
:0825C800000EF36E00EE00F0BE
:1025D000060E01D81200EA6002D0EE6AFCD7F35072
:0825E000E9601200EE6AFCD76D
:0825E80015EE00F025EE00F0F5
:1025F000F86A019C2FEC11F019EC13F012EC08F0C2
:04260000FBD71200F2
:0C260400FF0EE350ACBA04D0AF6AAB8EFE
:10261000AC8A949CACA2FED7AD6EF36EF46A120045
:102620003031323334353637383961626364656648
:0126300000A9
:02263200120094
:02263400FEFFA7
:0A263600504C59504D540047414DDF
:10264000525354000074000000010000000000001C
:0826500000011E010000000062
:020000040030CA
:0100010028D6
:0100020003FA
:010003003CC0
:01000500BD3D
:010006008178
:00000001FF
